:020000040800F2
:10000000F836002021020008F1D70008698B0008AB
:100010001DD60008192B0008D59801080000000023
:10002000000000000000000000000000B9590108B5
:100030005532000800000000A9DE0008BD65010877
:100040003B0200083B020008596C01083B02000813
:100050003B0200083B0200083B0200083B0200088C
:100060003B0200083B0200083B0200083B0200087C
:100070003B0200083B0200083B020008493200082E
:100080003B0200083B0200083B0200083B0200085C
:100090003B0200083B0200083B0200083B0200084C
:1000A0003B0200083B0200083B0200083B0200083C
:1000B0003B0200083B0200083B0200083B0200082C
:1000C0003B0200083B0200083B0200083B0200081C
:1000D0003B0200083B0200086D8B00083B02000851
:1000E0003B0200083B02000871E700083B020008E1
:1000F0003B0200083B0200083B0200083B020008EC
:100100003B0200083B0200089D4401083B02000836
:100110003B0200083B0200083B0200083B020008CB
:100120003B0200083B0200083B0200083B020008BB
:100130003B0200083B02000800F002F800F060F803
:1001400014A696E8000CB244B344DA4501D100F09D
:1001500057F8BAE80F000FA696E83000A5EB0405A3
:1001600004EB0607AAEB0704A7F101074FEA1515F0
:100170004FEA3414A4F10104AC4201D300F040F87A
:1001800013F0010F18BFFB1A43F0010300F001F850
:10019000DBE718470CD201002CD201000A4410F80A
:1001A000014B14F00F0508BF10F8015B240908BFCC
:1001B00010F8014B6D1E05D010F8013B6D1E01F8C3
:1001C000013BF9D1641E03D0641E01F8015BFBD131
:1001D0009142E4D3704700007047000000230024E0
:1001E00000250026103A28BF78C1FBD8520728BF47
:1001F00030C148BF0B6070471FB51FBD10B510BDA3
:1002000000F064F91146FFF7F7FF19F04FFE00F018
:1002100082F903B4FFF7F2FF03BC00F089F9000094
:100220000948804709480047FEE7FEE7FEE7FEE78A
:10023000FEE7FEE7FEE7FEE7FEE7FEE704480549C6
:10024000054A064B70470000556C0108390100084B
:10025000F82C0020F8360020F82E0020F82E002080
:1002600053EA020C00F069802DE9F04B4FF00006D4
:10027000002B1FBFB3FA83F503FA05F424FA05F641
:100280005E4012BF1643B2FA82F502FA05F4C5F1D8
:1002900020051EBF22FA05FC44EA0C04203556EA6C
:1002A000044C4FEA144418BF641C4FF000084FF090
:1002B0000009904271EB030C39D3002919BFB1FA40
:1002C00081F701FA07F6B0FA80F700FA07F6C7F1EE
:1002D00020071EBF20FA07FC46EA0C062037B6FBB3
:1002E000F4FCA7EB0507103F07F01F0BCBF120062E
:1002F0002CFA06F60CFA0BFB44BFB3460026202F5F
:10030000A4BF5E464FF0000B5BEA060C08BF4FF03F
:10031000010B19EB0B0948EB0608ABFB027C06FB53
:1003200002CC0BFB03CCC01B71EB0C01C1E70B46ED
:10033000024641464846BDE8F08B13B5084318BF56
:100340004FF0FF300146AFF30080BDE81C4070471E
:1003500010B5431C02E010F8011B71B18107FAD1FE
:100360004FF0013202C88C1A8C4314EAC211F9D042
:10037000C01A0A0603D0C01E10BDC01A10BD0A0460
:1003800001D0801E10BD0902FCD0401E10BD40EA05
:10039000010370B59B072ED14FF00136042A2AD3F2
:1003A00008C810C99D1B9D43121F15EAC61517D01A
:1003B000D8B2E1B2401A50EA056110D198B2A1B2A8
:1003C000401A50EA05410AD123F07F4024F07F41D2
:1003D000401A50EA052102D1180EA0EB146070BD3E
:1003E000A342DBD018BA21BA884201D9012070BDDE
:1003F0004FF0FF3070BD0AB9002070BD10F8013B0E
:1004000011F8014B63B1A3420AD1521E08D010F873
:10041000013B11F8014B1BB1A34201D1521EEDD19A
:10042000181B70BD02F0FF0343EA032242EA0242B6
:1004300000F02CB84FF0000200B5134694469646E3
:10044000203922BFA0E80C50A0E80C50B1F12001E7
:10045000BFF4F7AF090728BFA0E80C5048BF0CC095
:100460005DF804EB890028BF40F8042B08BF7047F3
:1004700048BF20F8022B11F0804F18BF00F8012B65
:1004800070477047704770474FF000020429C0F072
:10049000128010F0030C3FF4CFAFCCF1040CBCF190
:1004A000020F18BF00F8012BA8BF20F8022BA1EB08
:1004B0000C01FFF7C1BF5FEAC17C24BF00F8012B2C
:1004C00000F8012B48BF00F8012B7047754600F07B
:1004D0002BF8AE4605006946534620F007008546D6
:1004E00018B020B5FFF7AAFEBDE820404FF0000687
:1004F0004FF000074FF000084FF0000BAC46ACE89F
:10050000C009ACE8C009ACE8C009ACE8C00921F0FA
:1005100007018D46704710B50446AFF300802046B2
:10052000BDE81040FFF775BE00487047400100204D
:1005300001491820ABBEFEE726000200704700000C
:10054000B0B5016804468A688868C0074FF00000AB
:1005500031D012F0020218BFB0BD886800F005006B
:1005600001281FD188684FF6E872C7F6FF72104065
:10057000023088600320086004F006FD2168896865
:10058000C90704BF0020B0BD054602E08068C0076F
:1005900012D004F0F9FC411B20680329F6D38168CE
:1005A000C907F3D0A06D40F01000A065E06D40F0E9
:1005B0000100E0650120B0BD0020B0BD70B582B083
:1005C00004460020019021688A68D20711D14FF6B5
:1005D000E876C7F6FF76886806F12F0210420BD046
:1005E000A06D40F01000A065E06D40F00100E065F6
:1005F000012002B070BD00BF8868304040F00100AB
:10060000886042F20870C4F201000068000225D43C
:10061000607E01281ED004F0B7FC21680A68D2076A
:1006200018D1054603E000BF0868C00712D18868EA
:10063000C00704D18868304040F00100886004F0B1
:10064000A3FC401B21680328EED30868C007EBD148
:10065000C6E700BF002002B070BD00BF40F204102A
:10066000C2F20000006842F663518009C0F23E51B8
:10067000A0FB0101012000EB9110019001980028DE
:10068000C6D000BF01980138019001980028BFD062
:1006900001980138019001980028B9D001980138DB
:1006A000019001980028B3D0019801380190019879
:1006B0000028E7D1ACE70000B0B584B004460CF0E8
:1006C000C7FD42F22C60C2F2000003F081F800285E
:1006D00018BF02F0EFFD0020CDE9020042F22C60CD
:1006E000C2F2000001A9019403F0A6FA002818BF85
:1006F00002F0E0FD42F22C60C2F2000003F046FE80
:10070000002818BF02F0D6FD42F22C64C2F20004A9
:1007100020464FF0FF3103F0BBFD204603F066FE9C
:10072000204603F057FC0546204603F0ADFB284663
:1007300004B0B0BD2DE9F04F9BB017AE0C460B9046
:1007400030460021102219F087FC304631462246FF
:1007500019F0D8F89DF85E009DF86B6011909DF837
:100760005F009DF869500D909DF86000C6F3C018B9
:100770000C909DF861009DF868300A909DF86A0021
:100780009DF8671048EA4007C0F3C01040EA4500F2
:100790001090C5F3C01040EA43000F90C3F3C0109F
:1007A0009DF866A040EA41009DF865C00E90C1F337
:1007B000C0109DF8642040EA4A0BCAF3C0109DF8AF
:1007C000639040EA4C0ACCF3C0109DF862E040EA26
:1007D0004208C2F3C010129740EA4907C9F3C0109B
:1007E0000A9940EA4E09CEF3C01040EA410EC1F327
:1007F000C0100C9940EA410004900D98C1F3C01359
:1008000043EA400CC0F3C013119843EA40019DF83D
:100810005D30C0F3C01545EA43009DF95C50C3F359
:10082000C01343EA45027300002D6FF0780548BFFE
:1008300085EA460311918DF85E100E99D4F8145193
:100840008DF867100F990D908DF8681010998DF83C
:100850005D0004988DF86910129956B2102D8DF82C
:100860005C20CDF814C08DF85FC08DF86000CDF825
:1008700018E08DF861E0CDF81C908DF86290089733
:100880008DF86370CDF824808DF86480CDF830A0A9
:100890008DF865A0CDF828B08DF866B08DF86A1097
:1008A0008DF86B3040F0848094F8012194F8025167
:1008B00086EA020B0D9A119F6A400D9294F803216B
:1008C00094F804617A401192059994F8052181EA1F
:1008D000060794F8066180EA020A0698079980EAFA
:1008E000060E94F8070194F80821484007900898EC
:1008F00094F80A115040089094F80901099A129D41
:10090000504006900C980A9A48400C9094F80B01BD
:1009100094F80C1182EA00090E980F9A80EA010CF3
:1009200094F80D0194F80E1182EA0006109894F8DC
:10093000102180EA01080D9894F80F1184F8020143
:1009400011984D4084F80301384683EA020110975C
:1009500084F80471CDF848A084F805A1DDE9063AD1
:10096000089F0C98CDF838B084F801B1CDF83CE080
:1009700084F806E1AE4684F807A184F808711A46A7
:1009800084F8093184F80A01CDF8249084F80B9199
:10099000CDF828C084F80CC18C4684F80D61C1469E
:1009A00084F80E8184F80F5184F810113FE100BFE4
:1009B000DDF8488004F2011E802210990EF805200F
:1009C000C8F3C01242EA41020292C1F3C0120F9969
:1009D000002E42EA41020392C1F3C0120E9942EA8C
:1009E00041020192C1F3C0120A9942EA4102009207
:1009F000C1F3C0120C9942EA41020E92C1F3C01237
:100A0000099942EA41020A92C1F3C012089942EAE6
:100A1000410CC1F3C012079942EA41020C92069AB6
:100A2000C1F3C01141EA4209C2F3C01141EA400BCF
:100A30000599C0F3C01040EA410A1198C1F3C011F2
:100A40000D9A41EA4007C0F3C01141EA4205C2F3E2
:100A5000C01141EA46024FEA43016FF0780048BFF7
:100A600080EA43010C98C3F3C0138DF862000A9822
:100A700043EA48038DF86400019809938DF86700F4
:100A800003988DF86A30D4F814316646DDF800C05A
:100A900008958DF85D500E9D8DF868000298013321
:100AA00011978DF85E70CDF83C908DF861903746C7
:100AB000E1460F2B8DF85C20CDF840A08DF85FA0AB
:100AC000CDF848B08DF860B08DF863608DF8655052
:100AD0008DF866C08DF869000D918DF86B10C4F823
:100AE000143125D8002600BF0EF80360D4F8143165
:100AF00001330F2BC4F814311AD80EF80360D4F860
:100B0000143101330F2BC4F8143111D80EF80360DF
:100B1000D4F8143101330F2BC4F8143108D80EF86F
:100B20000360D4F814310133102BC4F81431DBD333
:100B300094F8013194F80261089882EA030A80EA85
:100B4000060E94F80321119894F804315040119046
:100B5000109812995840109094F8050194F80621C5
:100B6000484012900F980C9950400F9094F807014C
:100B700094F808214840079094F809010A995740D1
:100B800094F80A2181EA00060E98039B80EA020B82
:100B900094F80B0194F80C2189EA00010198CDF832
:100BA00038A080EA020C94F80D0194F80E2183EA33
:100BB0000008029894F8103180EA020594F80F2199
:100BC000099884F801A180EA0209109A0D9884F826
:100BD0000421129A584084F805210F9ADDF81CA0D0
:100BE000119BCDF834E084F802E1CE4684F806216A
:100BF000324684F80961CDF828C084F80CC18446D7
:100C00004646A94684F8033184F807A184F80871A0
:100C1000CDF830B084F80AB1099184F80B1184F84A
:100C20000D8184F80E5184F80FE184F810012146FB
:100C300011F8F13F0E9D0F986B4094F8F2500B7035
:100C40000D9B6B4094F8F35084F8F230119B6B408D
:100C500094F8F45084F8F330109B6B4094F8F550FE
:100C600084F8F430129B6B4094F8F65084F8F53019
:100C700080EA050394F8F75084F8F6308AEA050311
:100C800094F8F85084F8F73087EA050394F8F9509F
:100C900084F8F83082EA050394F8FA500C9884F846
:100CA000F93080EA050394F8FB50099884F8FA308B
:100CB00080EA050394F8FC500A9884F8FB3080EA37
:100CC000050394F8FD5084F8FC3086EA050394F897
:100CD000FE7084F8FD3094F8FF3089EA070084F84C
:100CE000FE008EEA030094F8003184F8FF008CEADD
:100CF000030013AE84F800013046102219F02CF9DD
:100D00000B993046224618F0FDFD17A8002110224D
:100D100019F0A2F91BB0BDE8F08F0000B0B5044691
:100D2000F13000211022002519F096F9204600210B
:100D3000F022C4F81451BDE8B04019F08DB900009C
:100D400002460846102119F00DB800002DE9F043C5
:100D500085B00446D0F814011546002800F0AB8099
:100D6000C0F110072E462044AF4238BF3E4600F285
:100D70000110B2B2894619F0EFF8D4F81401AF426D
:100D80003044C4F8140180F019811028C0F0168195
:100D9000A04618F8F10F94F8011194F8F320484098
:100DA00088F8000094F8020194F8F21094F8F430F6
:100DB000484094F8031184F8F20081EA020094F8A4
:100DC000041194F8F57084F8F30081EA030094F8B4
:100DD000051184F8F40081EA070094F8F61094F8FD
:100DE000062184F8F50082EA010094F8F71094F8DF
:100DF000072184F8F60082EA010094F8F81094F8CC
:100E0000082184F8F70082EA010094F8F91094F8B8
:100E1000092184F8F80082EA010094F8FA1094F8A5
:100E20000A2184F8F90082EA010094F8FB1094F892
:100E30000B2184F8FA0082EA010094F8FC1094F87F
:100E40000C2184F8FB0082EA010094F8FD1094F86C
:100E50000D2184F8FC0082EA010094F8FE1094F859
:100E60000E2184F8FD0082EA010094F8FF1094F846
:100E70000F2184F8FE0082EA010094F8001194F832
:100E8000102184F8FF0082EA010001AF84F800011C
:100E900038464146102219F05FF838463946224656
:100EA00018F030FD40463946102219F055F84946F1
:100EB00009EB0601AD1B112D79D304F1F108A1F165
:100EC000100601AF16F8100F94F8F11094F8F22004
:100ED000484084F8F100707894F8F310504084F89A
:100EE000F200B07894F8F420484084F8F300F078E9
:100EF000504084F8F40094F8F5003179102248400D
:100F000084F8F50094F8F6007179484084F8F6000A
:100F100094F8F700B179484084F8F70094F8F800A5
:100F2000F179484084F8F80094F8F900317A4840A3
:100F300084F8F90094F8FA00717A484084F8FA00CD
:100F400094F8FB00B17A484084F8FB0094F8FC0068
:100F5000F17A484084F8FC0094F8FD00317B484069
:100F600084F8FD0094F8FE00717B484084F8FE0090
:100F700094F8FF00B17B484084F8FF0094F800012A
:100F8000F17B484084F800013846414618F0E4FF00
:100F900038463946224618F0B5FC404639461022FC
:100FA00018F0DAFF103D102D8CD806F1100104F274
:100FB0000110AAB218F0D0FFC4F8145105B0BDE872
:100FC000F083000010B582B00DF1070007F0F6FEC7
:100FD00020B10224204602B010BD00BF9DF80700DA
:100FE0004CF2BB030090C0F6010300200021002258
:100FF000002417F083FE204602B010BD007800F0F8
:10100000FE0130291CBF0220704780B5303818BF60
:10101000012008F009FC002080BD00002DE9F04F00
:1010200097B013A9002007F097FF28B101242046AC
:1010300017B0BDE8F08F00BF9DF851009DF85460D7
:1010400012909DF852009DF8557011909DF8560031
:10105000CDE908670AAE9DF857109DF858209DF815
:1010600059309DF85AC09DF85BE086E80F50129801
:101070009DF85350059011989DF84C809DF8504074
:101080004DF25823CDE90605C0F6010300200021EA
:1010900000229DF84D909DF84EA09DF84FB08DE830
:1010A000000F0494002417F029FE204617B0BDE875
:1010B000F08F00002DE9F04F95B011AA0F90501C51
:1010C000109002F1090002F10A0102F108070E90E6
:1010D00002F10D0002F10E0308910BA902F10F0CB1
:1010E00081E8091006974CF20721109BDDE90E708C
:1010F00002F1020902F1030802F1040E02F1050AED
:1011000002F1060BD61D02F10B0402F10C05C0F62C
:10111000010109940A95CDE90098CDE902EACDE9EB
:1011200004B6079718F0E6FF102809D111A900208E
:1011300008F020FC002818BF012015B0BDE8F08F92
:10114000022015B0BDE8F08F2DE9F04F97B013A93C
:10115000092007F001FF28B10124204617B0BDE89F
:10116000F08F00BF9DF851009DF8546012909DF8DB
:1011700052009DF8557011909DF85600CDE9086712
:101180000AAE9DF857109DF858209DF859309DF8EB
:101190005AC09DF85BE086E80F5012989DF85350B6
:1011A000059011989DF84C809DF850404DF25823C1
:1011B000CDE90605C0F601030020002100229DF8BC
:1011C0004D909DF84EA09DF84FB08DE8000F04940F
:1011D000002417F093FD204617B0BDE8F08F000003
:1011E0002DE9F04F95B011AA0F90501C109002F10C
:1011F000090002F10A0102F108070E9002F10D0048
:1012000002F10E0308910BA902F10F0C81E80910FD
:1012100006974CF20721109BDDE90E7002F10209DE
:1012200002F1030802F1040E02F1050A02F1060BB5
:10123000D61D02F10B0402F10C05C0F60101099460
:101240000A95CDE90098CDE902EACDE904B6079701
:1012500018F050FF102809D111A9092008F08AFBC5
:10126000002818BF012015B0BDE8F08F022015B08E
:10127000BDE8F08FB0B582B00078312805D03028B5
:1012800026D10120012107F0BFFF0220012107F034
:10129000BBFF42F2F435C2F200054DF6990300247B
:1012A000C0F6000328464FF4FA510022009418F0CB
:1012B00069F8284618F0C4F942F69972C0F600029F
:1012C0000820002117F034FF204602B0B0BD00BF57
:1012D0000224204602B0B0BD10B582B00DF1070067
:1012E00007F0D8FE20B10224204602B010BD00BF96
:1012F0009DF907004CF2BB030090C0F601030020EB
:1013000000210022002417F0F9FC204602B010BD95
:1013100080B582B04CF2FE11C0F601010DF107025A
:1013200018F0E8FE012803D19DF807000F2803D923
:10133000022002B080BD00BF40B208F099FB002837
:1013400018BF012002B080BD10B586B005A807F017
:1013500081FD18B10224204606B010BD0598002476
:10136000010EC0F30742C0F30723C0B28DE80E00A0
:10137000039004A300200021002217F0BFFC2046A8
:1013800006B010BD253032583A253032583A253053
:1013900032583A253032580D0A00000080B584B02A
:1013A0000DF10C0C0CF103020CF102030CF1010E17
:1013B00009A1CDE900EC18F09DFE042808D103989E
:1013C00008F06CFA002818BF012004B080BD00BFEF
:1013D000022004B080BD00BF256868783A2568689F
:1013E000783A256868783A2568687800B0B58AB098
:1013F00008A807F04DFD18B1022420460AB0B0BD80
:101400009DF820009DF823309DF821109DF82220A2
:101410009DF824409DF825C09DF826E09DF82750B2
:101420008DE81F504DF28023C0F6010300200021FB
:1014300000220795002417F061FC20460AB0B0BDD9
:1014400070B588B006AA911C02F1030C02F1040EDB
:101450008DE802504CF22F21531C541D951DD61DB2
:10146000C0F60101CDE90345059618F043FE0828B2
:1014700008D106A808F032FA002818BF012008B0E9
:1014800070BD00BF022008B070BD000010B582B072
:101490000BF0CAFE40B104460DF1070007F0BAFC9C
:1014A00030B1022002B010BD012002B010BD00BF5B
:1014B000A1689DF80700012908D140F65C51C2F2ED
:1014C00000010978012908BF00280BD041300090A5
:1014D0000EA300200021002217F010FC002002B013
:1014E00010BD00BF0DF1060007F090FC0028D8D118
:1014F0009DF80600092803D806A151F82030E8E736
:101500004BF6AA73C0F60103E3E700BF25630D0A9B
:10151000000000009CBF01089CBF0108AABF010891
:10152000AABF01089CBF0108A3BF0108AABF010808
:10153000A3BF0108A3BF0108A3BF010810B504465B
:101540000BF072FE80B122780146432A4FF0020070
:1015500017D0422A0AD0412A18BF10BD8868012836
:101560004FF0000008D00CE0012010BD8868012871
:101570001CBF072010BD012040F65C51C2F20001E3
:10158000087008F031F80146002818BF0120033127
:1015900008BF052010BD000010B582B00DF1070096
:1015A00007F08EFC20B10224204602B010BD00BF1F
:1015B0009DF807004CF2BB030090C0F60103002029
:1015C00000210022002417F099FB204602B010BD34
:1015D000007800F0FE0130291CBF0220704780B562
:1015E000303818BF012008F099F9002080BD0000B4
:1015F0000078302806D031281CBF02207047022016
:1016000001E000BF012080B5012107F0FDFD0020B1
:1016100080BD000010B582B001A807F061FC18B1D0
:101620000224204602B010BD01984CF27B130090BA
:10163000C0F60103002000210022002417F05EFB09
:10164000204602B010BD000080B582B04CF20321EC
:10165000C0F6010101AA18F04DFD012808D101983A
:1016600008F068F9002818BF0120400002B080BDD2
:10167000022002B080BD000010B582B001A807F0C2
:101680004DFC18B10224204602B010BD01984CF266
:101690007B130090C0F601030020002100220024EB
:1016A00017F02CFB204602B010BD000080B582B0C0
:1016B0004CF20321C0F6010101AA18F01BFD01281C
:1016C00008D1019808F046F9002818BF0120400011
:1016D00002B080BD022002B080BD0000B0B58AB06B
:1016E00008A807F07BFB18B1022420460AB0B0BD61
:1016F0009DF820009DF823309DF821109DF82220B0
:101700009DF824409DF825C09DF826E09DF82750BF
:101710008DE81F504DF28023C0F601030020002108
:1017200000220795002417F0E9FA20460AB0B0BD60
:1017300070B588B006AA911C02F1030C02F1040EE8
:101740008DE802504CF22F21531C541D951DD61DBF
:10175000C0F60101CDE90345059618F0CBFC082839
:1017600008D106A808F07AF8002818BF012008B0B0
:1017700070BD00BF022008B070BD000080B507F04A
:10178000D1FD002818BF0120400080BD80B594B075
:1017900007A814F05BFF079841F60E41084409A919
:1017A000079014F087FFDDE90D30DDE909E1DDE99F
:1017B0000B2C013300F26C70CDE90021CDE904302F
:1017C00006A3002000210022CDF808E0CDF80CC0CF
:1017D00017F094FA002014B080BD00BF4C54494D5E
:1017E000453A2530326468253032646D25303264E4
:1017F00073206F6E20253032642F253032642F2500
:101800003034640D0A00000010B582B001A807F062
:10181000C1FB18B10224204602B010BD01984CF261
:10182000BB030090C0F60103002000210022002429
:1018300017F064FA204602B010BD000080B582B0F7
:101840004CF2FB11C0F6010101AA18F053FC01286B
:1018500002D101987F2803D9022002B080BD00BFC9
:1018600008F0AEF8002002B080BD00002DE9F04F76
:1018700097B013A90120012407F06EFB20B1204688
:1018800017B0BDE8F08F00BF9DF851009DF854607F
:1018900012909DF852009DF8557011909DF85600D9
:1018A000CDE908670AAE9DF857109DF858209DF8BD
:1018B00059309DF85AC09DF85BE086E80F501298A9
:1018C0009DF85350059011989DF84C809DF850401C
:1018D0004DF25823CDE90605C0F601030020002192
:1018E00000229DF84D909DF84EA09DF84FB08DE8D8
:1018F000000F0494002417F001FA204617B0BDE849
:10190000F08F00002DE9F04F95B011AA0F90501CF8
:10191000109002F1090002F10A0102F108070E908D
:1019200002F10D0002F10E0308910BA902F10F0C58
:1019300081E8091006974CF20721109BDDE90E7033
:1019400002F1020902F1030802F1040E02F1050A94
:1019500002F1060BD61D02F10B0402F10C05C0F6D4
:10196000010109940A95CDE90098CDE902EACDE993
:1019700004B6079718F0BEFB102809D111A9012061
:1019800007F0F8FF002818BF012015B0BDE8F08F60
:10199000022015B0BDE8F08F2DE9F04F97B013A9E4
:1019A000082007F0D9FA28B10124204617B0BDE875
:1019B000F08F00BF9DF851009DF8546012909DF883
:1019C00052009DF8557011909DF85600CDE90867BA
:1019D0000AAE9DF857109DF858209DF859309DF893
:1019E0005AC09DF85BE086E80F5012989DF853505E
:1019F000059011989DF84C809DF850404DF2582369
:101A0000CDE90605C0F601030020002100229DF863
:101A10004D909DF84EA09DF84FB08DE8000F0494B6
:101A2000002417F06BF9204617B0BDE8F08F0000D6
:101A30002DE9F04F95B011AA0F90501C109002F1B3
:101A4000090002F10A0102F108070E9002F10D00EF
:101A500002F10E0308910BA902F10F0C81E80910A5
:101A600006974CF20721109BDDE90E7002F1020986
:101A700002F1030802F1040E02F1050A02F1060B5D
:101A8000D61D02F10B0402F10C05C0F60101099408
:101A90000A95CDE90098CDE902EACDE904B60797A9
:101AA00018F028FB102809D111A9082007F062FFBF
:101AB000002818BF012015B0BDE8F08F022015B036
:101AC000BDE8F08F10B582B00DF1070007F080FA85
:101AD00020B10224204602B010BD00BF9DF80700CF
:101AE0004CF2BB030090C0F601030020002100224D
:101AF000002417F003F9204602B010BD80B582B073
:101B00004CF2FE11C0F601010DF1070218F0F2FAD5
:101B1000012803D19DF80700072803D9022002B04D
:101B200080BD00BF07F06CFF002818BF01204000F7
:101B300002B080BD80B584B00DF10F0007F02EF922
:101B400018B99DF80F00092802D9022004B080BD01
:101B500006A151F820100FA3CDE9000100200021BB
:101B6000002217F0CBF8002004B080BDC1C10108ED
:101B7000D9C10108B7C10108EBC10108C7C10108FB
:101B8000E5C10108B1C10108DFC10108D3C10108E5
:101B9000CDC1010825643A25730D0A0080B582B0D5
:101BA0004CF2FE11C0F601010DF1070218F0A2FA85
:101BB000012803D19DF80700092803D9022002B0AB
:101BC00080BD00BF07F012FE002818BF01204000B2
:101BD00002B080BD10B582B001A807F01FFA18B19D
:101BE0000224204602B010BD01984CF27B130090F5
:101BF000C0F60103002000210022002417F07EF827
:101C0000204602B010BD000080B582B04CF2032126
:101C1000C0F6010101AA18F06DFA012808D1019857
:101C200007F006FF002818BF0120400002B080BD69
:101C3000022002B080BD000080B584B002A807F089
:101C4000CBF99DF80CC04CF2BB03C0F60103002099
:101C500000210022CDF800C017F050F8002004B099
:101C600080BD0000B0B582B06D460446284607F03E
:101C7000B3F94CF2FE112A1DC0F60101204618F0FE
:101C800039FA01284FF002000AD19DF804100F29FB
:101C900006D8684607F0B8FE002818BF01204000AB
:101CA00002B0B0BD10B582B001A807F0D5F918B1E7
:101CB0000224204602B010BD01984CF27B13009024
:101CC000C0F60103002000210022002417F016F8BE
:101CD000204602B010BD000080B582B04CF2032156
:101CE000C0F6010101AA18F005FA012808D10198EF
:101CF00007F0AEFE002818BF0120400002B080BDF2
:101D0000022002B080BD000080B584B002A807F0B8
:101D100063F9DDF808C04CF2BB03C0F601030020F4
:101D200000210022CDF800C016F0E8FF002004B02A
:101D300080BD0000B0B582B06D460446284607F06D
:101D40004BF94CF20321C0F6010120462A4618F057
:101D5000D1F9012808D1684607F056FE002818BFBF
:101D60000120400002B0B0BD022002B0B0BD0000B2
:101D70002DE9F04782B00446FEF7EAFA0546002056
:101D80008DF80200ADF8000063A101AA204618F00A
:101D9000B1F901282CD12078302841D339282FD807
:101DA000A9B202292CD36078302839D33928A5F17B
:101DB00001011FD88AB2022A1CD3A07830282FD361
:101DC0003928A5F1020117D88AB2022A14D3E07883
:101DD000302825D33928A5F103010FD88AB2022A69
:101DE0000CD314F8040F043D2F28D7D818E000BFF7
:101DF0004AA319E0013402E0023400E003340D4646
:101E000029040DD03A280BD16078302816D031281B
:101E100046D14FF00108A8B2032814D23EE000BF1B
:101E20004CF24E13C0F6010300200021002216F0F0
:101E300065FF022002B0BDE8F08700BF4FF0000848
:101E4000A8B203282AD3A0783A2827D1EE1EB0B230
:101E5000022827D340F2B0090025C2F200090FF290
:101E6000E40A6F4604EB4500C1788DF80010007954
:101E7000D9F804108DF801004A193846514618F077
:101E800039F90128D5D1691CF02DA6F102060AD82E
:101E9000B0B201280D46E5D805E000BF2BA3C3E78B
:101EA00036A3C1E700213004C3D140F2B000019A4B
:101EB000C2F20000417002704146002207F0F8FBB8
:101EC0006FF0F90151FA80F104290FD8DFE801F031
:101ED0001C200418040000BF07F010FA014605207A
:101EE000012908BF032002B0BDE8F087C0B2002876
:101EF0004FF000000DD0012002B0BDE8F08700BF18
:101F0000052002B0BDE8F087082002B0BDE8F087E8
:101F1000092002B0BDE8F08725753A0041542B53E3
:101F2000454E4420776974686F7574207468652025
:101F30006170706C69636174696F6E20706F727428
:101F40000D0A0000256868780000000041542B53FA
:101F5000454E44206D697373696E67203A2063684B
:101F60006172616374657220616674657220616379
:101F70006B20666C61670D0A0000000041542B5312
:101F8000454E4420776974686F75742074686520C5
:101F900061636B6E6F776C6564676520666C616703
:101FA0000D0A000010B582B00DF1070007F098F897
:101FB00020B10224204602B010BD00BF9DF90700E9
:101FC0004CF2BB030090C0F6010300200021002268
:101FD000002416F093FE204602B010BD80B582B0FA
:101FE0004CF2FE11C0F601010DF1070218F082F863
:101FF000012809D19DF9070007F05AFD002818BFF4
:102000000120400002B080BD022002B080BD00006F
:1020100080B582B013F0D2FC4CF2BB038446C0F60C
:102020000103002000210022CDF800C016F066FE5A
:10203000002002B080BD000004A109A3012808BF50
:102040000B4600200021002216F058BE4E564D20AF
:10205000444154412053544F5245440D0A0000005E
:102060004E564D204441544120524553544F524501
:10207000440D0A000A464FF20001C0F6030101F0C8
:102080009DB9000070B54FF20006C0F603060C467D
:10209000054630464FF4006101F012F9002818BFE0
:1020A00070BD304629462246BDE8704001F0ACB90B
:1020B00017F012FC80B54FF20000C0F603004FF499
:1020C000006101F0FDF800281CBF002080BD17F062
:1020D00003FC00000120704710B507F031F910F142
:1020E00008014FF0000405D0C0B2FF2808D1012438
:1020F0000AA300E003A300200021002216F0FEFD49
:10210000204610BD4E564D2044415441205550208C
:10211000544F20444154450D0A0000004E564D20B6
:10212000444154412053544F5245204641494C4567
:10213000440D0A0080B58EB002A815F0ABFBDDF8A7
:102140000CC093A3002000210022CDF800C016F09F
:10215000D5FDDDF810C093A3002000210022CDF8AA
:1021600000C016F0CBFD0298032804D0012869D0E6
:10217000002840F0DF80DDF814C04CF28013C0F678
:102180000103002000210022CDF800C016F0B6FDAA
:10219000DDF818C04CF21913C0F60103002000212D
:1021A0000022CDF800C016F0A9FD4CF2C003C0F625
:1021B000010300200021002216F0A0FDDDF820C060
:1021C0004BF6C863C0F60103002000210022CDF8C1
:1021D00000C016F093FDDDF824C04BF6DD63C0F6B9
:1021E0000103002000210022CDF800C016F086FD7A
:1021F00002984BF6F3714CF20703C0F60101C0F6EA
:102200000103002808BF0B4600200021002216F021
:1022100075FDDDF828C04CF2FE03C0F60103002076
:1022200000210022CDF800C016F068FD02980028B9
:1022300000F088804BF6B173C0F601030020002146
:1022400000228AE0DDF814C04BF2E430C0F6010051
:1022500050F82CE04BF68073C0F6010300200021FB
:102260000022CDE900CE16F049FDDDF818C04BF68E
:102270000C73C0F60103002000210022CDF800C03D
:1022800016F03CFDDDF81CC04BF6F7630CF1040EB4
:10229000C0F60103002000210022CDE900CE16F097
:1022A0002DFDDDF820C04BF6C863C0F60103002009
:1022B00000210022CDF800C016F020FDDDF824C07A
:1022C0004BF6DD63C0F60103002000210022CDF8AB
:1022D00000C016F013FD4BF6DE73C0F601030020BC
:1022E0000021002216F00AFDDDF828C04CF2FE03A2
:1022F000C0F60103002000210022CDF800C016F036
:10230000FDFC2DA300200021002216F0F7FCDDF8D3
:1023100030C034A3002000210022CDF800C016F008
:10232000EDFC37A300200021002216F0E7FC00207E
:102330000EB080BDDDF818C04CF23313C0F60103B7
:102340001CE000BFDDF82CC04CF29613C0F6010370
:10235000002000210022CDF800C016F0CFFC4CF286
:10236000E003C0F6010300200021002216F0C6FCA5
:10237000DDF834C04BF61973C0F6010300200021CC
:102380000022CDF800C016F0B9FC00200EB080BDD0
:10239000313A20467265713D20256420487A0D0A45
:1023A00000000000323A20506F7765723D202564AE
:1023B0002064426D0D0A000031303A20467265718A
:1023C00075656E637920646576696174696F6E20E6
:1023D0006E6F74206170706C696361626C650D0A68
:1023E0000000000031313A204C6F7744526F707416
:1023F0005B3020746F20325D3D202564200D0A0083
:1024000031322042542070726F64756374206E6F95
:1024100074206170706C696361626C650D0A000004
:1024200080B582B04CF2FB11C0F6010101AA17F091
:1024300061FE012808D1019814F052FE002818BF4F
:10244000012002B080BD00BF04A3002000210022B3
:1024500016F054FC022002B080BD00BF41542B5442
:1024600052583A206E622065787065637465642006
:102470007061636B657473206973206D6973736930
:102480006E670D0A0000000080B514F0A1FF00285F
:1024900018BF032080BD000070B5A4B0044618A882
:1024A0003021FDF7C7FF0CA80DA90EAACDE9082120
:1024B0000A9011A912AA13AB0BA80DF13C0C0DF157
:1024C000400E14AD15AECDE90203CDE904215CA1A7
:1024D00017AA16AB2046CDE90065CDF818E0CDF877
:1024E0001CC017F007FE0D2840F08E8018AC204667
:1024F00015F0D0F91099032900F28680DFE801F089
:1025000002080406002004E0022002E0032000E0AC
:1025100001201890179A44F240231698C0F20F0336
:10252000B2F57A7F38BF5A4300F109031F2B199285
:102530006AD81A90159842F23902C0F2070279B9A6
:10254000B0F5965F0CD390420AD2149A49F28916DC
:10255000A2F51673C0F20406B3421B902ED353E0CB
:10256000032911D1B0F5965F0ED390420CD2149A84
:1025700049F28916C0F20406A2F1640306F5FA7660
:10258000B3421B9040D219E001290FD107280DD288
:10259000149A1B90531F072B36D813981C92431F75
:1025A000032B31D8021F142009E000BF02294FF08D
:1025B000020043D1149AB2F57A7F3FD81020129BC3
:1025C0002250012B20D811981E93012898BF1F90EC
:1025D0000F9A501EFE2817D8481E0328209207D2B3
:1025E000012915D80D9903290ED2282021E000BF1A
:1025F0000E9840F6E823A0F51672C0F203039A4243
:1026000002D8219006E000BF022024B070BD00BFB8
:1026100002280FD10029084618BF0120033918BF2E
:10262000012108424FF0020008D10C99042905D875
:102630002C20215018A815F037F9002024B070BDC7
:1026400025643A25643A25643A25643A25642F25A1
:10265000643A25643A25643A25643A25643A256447
:102660003A25643A2564000080B515F029F904A3E1
:1026700000200021002216F041FB002080BD00BF99
:10268000546573742053746F700D0A0080B582B066
:102690004CF2FB11C0F6010101AA17F02BFD012835
:1026A00008D1019814F026FF002818BF012002B0BD
:1026B00080BD00BF04A300200021002216F01EFBF5
:1026C000022002B080BD00BF41542B5454583A2020
:1026D0006E62207061636B6574732073656E742025
:1026E0006973206D697373696E670D0A00000000DD
:1026F00080B515F0A1F8002818BF032080BD0000A8
:102700002DE9F04194B010AF11AE25A113AA12AB80
:10271000CDE9006717F0EEFC042839D1139EF008CC
:102720007C2844F24020C0F20F009CBF4643139621
:102730001299CA087C2A9CBF48431290109818B37B
:10274000002704AC0FF26408204615F0A3F82046D9
:10275000059615F0A9F8109D00200021012243469E
:10276000CDE90067029516F0C9FA012014F0C2FE07
:1027700090B9119801373044DDE91216884298BFAC
:10278000064610988742DFD3002014B0BDE8F081E0
:10279000022014B0BDE8F081032014B0BDE8F08140
:1027A00025752C25752C25752C2575005478204809
:1027B0006F70206174202564487A2E202564206F74
:1027C000662025640D0A000080B582B016F0B6FBC5
:1027D0004CF27B138446C0F6010300200021002246
:1027E000CDF800C016F08AFA002002B080BD0000CB
:1027F00080B582B04CF2FB11C0F6010101AA17F0BE
:1028000079FC012808D1019804280FD34BF63C73BA
:10281000C0F6010301E000BF07A300200021002251
:1028200016F06CFA022002B080BD00BFC0B216F0F4
:10283000C3FB002002B080BD41542B564C3A207699
:102840006572626F7365206C6576656C20697320B4
:102850006E6F742077656C6C207365740D0A0000D0
:10286000B0B586B04CF23C0301240325C0F6010349
:10287000002000210022CDE90045029416F03EFA26
:10288000062002214CF21B03CDE90010C0F6010323
:10289000002000210022029416F030FA19A3002033
:1028A00000210022CDE90045029416F027FA05AC7C
:1028B0000020214606F03AFC05981BA3010EC0F348
:1028C0000742C0F30725CDE90012002000210022B5
:1028D000029516F013FA0120214606F027FC059810
:1028E000010EC0F30742C0F30723C5B28DE80E0006
:1028F00016A3002000210022039516F0FFF9002006
:1029000006B0B0BD4D575F524144494F5F564552E6
:1029100053494F4E3A202020205625582E25582E18
:1029200025580D0A000000004C325F535045435FAC
:1029300056455253494F4E3A2020202020562558C4
:102940002E25582E25580D0A0000000052505F53C6
:102950005045435F56455253494F4E3A2020202060
:10296000205625582D25582E25582E25580D0A005D
:1029700010B584B041F68454C2F2000494F83804CF
:1029800030B194F80E0484F8390404B010BD00BFCF
:1029900002208DF80C0041F20460C2F2000000F544
:1029A0000871019100F5317190F84800029101A978
:1029B00010F096FB002084F8100484F8380494F892
:1029C0000E0484F8390404B010BD000041F68450B0
:1029D000C2F2000090F80D2490F80E14914221D21A
:1029E0004A1CC90780F80E2418BF704710B582B082
:1029F00041F20464C2F20004222094F839108DF8E8
:102A0000030094F87C2094F848008DF804100DF130
:102A100003018DF8052010F04BFB84F8390002B05B
:102A2000BDE8104070470000032825D870B500218C
:102A3000C000C0F20111C0B201F5807240F2001373
:102A400040F60004C240C0F20103C4F6000423FAB9
:102A500000F521FA00F6D2B22046082102F08EFAE3
:102A6000EAB22046102102F089FAF2B22046202173
:102A700002F084FABDE8704000207047162100285B
:102A800008BF0F210846704700207047B0B586B0D8
:102A900000200490CDE90200CDE900004C20C5F6ED
:102AA0000000016840F6000441F004010160006884
:102AB000C4F6000400F00400059005981020009072
:102AC0000120019003206D4603902046294602F024
:102AD0008DF9202000902046294602F087F9082031
:102AE00000902046294602F081F92046202100224C
:102AF00002F044FA20461021002202F03FFA20465C
:102B00000821002202F03AFA002006B0B0BD000011
:102B10000120704701207047FEE7000040F2B0112D
:102B2000C2F200010A69531C092B0B6104D1012078
:102B300008700A610AE000BF8A680078531C0A44E2
:102B40008B60082B107604BF00208860486800283E
:102B500008BF70470047000010B5044642F61D301C
:102B6000C0F6000016F02EFA40F2B010C2F20000DB
:102B70000021002C18BF4460C0E90211C0E9041113
:102B8000017010BD2DE9F04F83B040F2B018C2F2D1
:102B9000000898F8000001281ED14CF2AC64C0F681
:102BA000010400BF002000210022234616F0A6F8F1
:102BB0000028F7D1EFF31080EFF3108172B6D8F848
:102BC0000810C8F80C100021C8F8101088F8001080
:102BD00080F31088C8F81410D8F81000002800F00E
:102BE000C18142F210474CF265644CF2AC65C2F20E
:102BF00000074FF00009C0F60104C0F601051CE013
:102C00000131531CC8F80C10C8F814300829B85406
:102C100008BFC8F80C90EFF31080EFF3108172B684
:102C2000D8F810100139C8F8101080F3108800BFD0
:102C3000D8F81000002800F09581D8F80C1008EBA7
:102C40000100007E0D2818BF0A284DD1481CB0F1A4
:102C5000080118BF0146C8F80C10EFF31080EFF31D
:102C6000108172B6D8F810100139C8F8101080F32E
:102C70001088D8F814000028DAD0002600223E542C
:102C8000EFF31083EFF3108072B6019302E000BF00
:102C900001360432B85C082810D000285AD0B81881
:102CA000417808290FD0002958D0817808290ED002
:102CB000002959D0C07808280DD1E9E70136B818A5
:102CC00041780829EFD1013681780829F0D1013601
:102CD000C0780828DCD00028DBD102F1010B0332D8
:102CE000002E45D1A6E000BF01281FD1481CB0F13D
:102CF000080118BF0146C8F80C10EFF31080EFF37D
:102D0000108172B6D8F810100139C8F8101080F38D
:102D1000108800BF002000210022234615F0EEFF9E
:102D20000028F7D1C8F8149082E700BFD8F8142023
:102D300040F21B239A427FF463AFC8F8149000BF9F
:102D40000020002100222B4615F0D8FF0028F7D1E3
:102D50006EE700BFA2F1020B56B96BE0A2F1010BC6
:102D600001322EB966E000BF93460232002E61D0D8
:102D7000CBF1000CABF1010E0020029613E000BF76
:102D800042F21047029E5946C2F200074FF0000976
:102D90000130ABF1020B0CF1020CB042AEF1020EAD
:102DA00027F8019046D04FF0FF3500BF79194C78D5
:102DB000082C0BD08C78082C0CD0CC78082C35D073
:102DC000097904350829F1D105E000BF01351DB9A5
:102DD00030E000BF02356DB3691E023A9142D7D28E
:102DE00074463946674600BF01EB050999F8018032
:102DF00015EB070A09F8018CC2D099F80230A542F8
:102E00004B55BDD099F803301AF1020689F801300C
:102E1000B6D099F80430043789F80230EB19043140
:102E2000012BA4F10404DFD1AAE700BF0335002D74
:102E3000D2D100BF019880F310883878012541284D
:102E400034D1787840F2B0184CF641244BF26C4AF9
:102E50005428C2F20008C0F60104C0F6010A65D188
:102E6000B87808B33F2827D100200021002223464C
:102E700015F044FF0028F7D1002500BF05EB450001
:102E80000AEBC000446900BF002000210022234655
:102E900015F034FF0028F7D10135272DEED100BF02
:102EA00016F070F80128FBD100253FE040F2B01881
:102EB000C2F200083AE000BF002500BF0AEB050699
:102EC00074685AF80510B81C2246FDF760FA28B15C
:102ED0001835B5F56A7FF1D114E000BF391911F842
:102EE000020FD8B13D280FD03F280BD1746900BF25
:102EF0000020002100222346002515F0FFFE0028B7
:102F0000F6D113E0012511E0084610F8012F3F2A01
:102F100001D1897821B30C2202E000BF10220846BB
:102F20000AEB020149598847054600BF0FA00A2D48
:102F300028BF0A2550F82540002000210022234602
:102F400015F0DCFE0028F7D14CF265644CF2AC655C
:102F5000C8F81490C0F60104C0F6010568E600BF89
:102F60000822DDE703B0BDE8F08F00BF01C601080D
:102F700058C6010831C6010875C60108ACC601086B
:102F800070C5010865C60108A5C5010889C5010805
:102F900044C60108C3CB010880B540F2B000C2F2BC
:102FA0000000416843220A7040F26311018006F07C
:102FB000A5F9012805D042F2F430C2F2000016F063
:102FC0003FFB40F2B000C2F2000000210022BDE849
:102FD000804006F06DBB00000120002116F092B980
:102FE0002DE9F041CAB0044600294FF002005ED03E
:102FF000DDF84081B8F1000F59D068461F460E46F3
:103000001546FDF78BFE42F29030C2F200000068D8
:10301000014611F8182FBA4231D0014611F8292F74
:10302000BA422CD0014611F83A2FBA4227D00146B5
:1030300011F84B2FBA4222D0014611F85C2FBA4248
:103040001DD0014611F86D2FBA4218D0014611F873
:103050007E2FBA4213D0014611F88F2FBA420ED0FC
:10306000014611F8A02FBA4209D0014611F8B12F3C
:10307000BA4204D010F8C21FB94201461AD1013138
:103080006846FDF75DFE24B1684621461022FDF733
:103090005DFE6C46204631462A46FDF757FE46A89F
:1030A0002146FDF747FB4698C8F8000000204AB0CB
:1030B000BDE8F08103204AB0BDE8F08100284FF060
:1030C000000218BF002901D1104670472DE9F04FCA
:1030D00082B048F2203E44F2901C42F2C80941F20C
:1030E000640A48F6320B4CF21942CEF6B85EC7F2CB
:1030F000DC6CC3F66E39C1F6B75AC0F6DB6B01293A
:10310000C0F26D7206D14FF0FF360023C90766D1B9
:103110008AE000BF21F001030091594201914FF074
:10312000FF366FF001031146C418A57894F80380A8
:1031300075408EEA5506EF0708BF6E088EEA5607FF
:1031400062465FEA857C944658BF770881EA971209
:103150006C0758BFBA092C0748BF82EA0B02EC067D
:1031600048BF82EA0A02AD0648BF82EA0902B606F3
:1031700048BF82EA0C02BF0648BF82EA0E0282EA1A
:1031800008028EEA5207D60708BF57088EEA57058D
:10319000960758BF7D0881EA9516540758BFAE09B7
:1031A000140748BF86EA0B06D40648BF86EA0A061B
:1031B000920648BF86EA0906BA0648BF86EA0C06A8
:1031C000AA0648BF86EA0E06019A02331A44023262
:1031D000AAD1009C02330A462146C90724D0C05C0C
:1031E00070408EEA5001C30708BF41088EEA5103C0
:1031F000840758BF4B0882EA9316440758BF9E09BC
:10320000040748BF86EA0B06C40648BF86EA0A06DA
:10321000800648BF86EA0906880648BF86EA0C068B
:10322000980648BF86EA0E06F24302B0BDE8F04FAA
:103230001046704780B501F04DF901F05FF9BDE827
:10324000804001F051B9000042F29060C2F20000EB
:1032500001F064BA7047000080B584B08446002055
:103260000390CDF809000220BCF1080F08BF01202F
:103270008DF80000080A8DF80200080C8DF8030094
:10328000100A8DF80500100C8DF80600180A8DF84C
:1032900001108DF804208DF808006846012162466F
:1032A0008DF8073012F030FE002818BF0F2004B050
:1032B00080BD0000EFF3108072B600BFFEE7000093
:1032C000B0F1006F11D347F2E052C1F6FF721268FD
:1032D0004FF60043C0F2FF3303EA82226FF07843D7
:1032E0001A44824228BF00F003B84FF0FF30704705
:1032F000B0B584B00022039240B105460C4601F0FF
:10330000CDFC38B1FB2460B204B0B0BDFA2460B289
:1033100004B0B0BD44F21800C5F60000016841F0E9
:10332000404101604CF2FA3140F8081C01F0E0FB2A
:1033300020B1FB2460B204B0B0BD00BF01F0AEFC10
:1033400020B1FB2460B204B0B0BD00BF022047F240
:10335000E05C0090C1F6FF7CDCF800204FF60043F3
:10336000C0F2FF3305F1784003EA8222B0FBF2F1AC
:1033700001FB12006FF00062C10A01916119DCF8D3
:103380000050114403EA8522B1FBF2F303FB121152
:10339000C90AA1EBD02001300290684603A901F0D0
:1033A00033FB6FF00104022808BF0124002808BF86
:1033B000044601F09DFB60B204B0B0BDB1F1006FF6
:1033C00010D347F2E053C1F6FF73D3F800C04FF6B5
:1033D0000043C0F2FF3303EA8C2C6FF07843634460
:1033E0008B4203D2FF2040B2704700BF40B180B58E
:1033F00092B215F04BFE0020BDE8804040B270470D
:10340000FA2040B2704700002DE9F04F85B0B0F1CE
:10341000006F15D347F2E055C1F6FF752B684FF6E4
:103420000047C0F2FF3707EA83236FF07846334442
:1034300083420BD2FF2460B205B0BDE8F08F00BF1D
:10344000FF2460B205B0BDE8F08F00BF00294FF047
:10345000FA04F0D040EA020313F00703EBD10C4664
:10346000CDE9032001F01AFC88B944F21800C5F632
:103470000000016841F0404101604CF2FA3140F82F
:10348000081C01F035FB10B901F008FC20B1FB2449
:1034900060B205B0BDE8F08F29680498DDF80CA093
:1034A00000F1784207EA812100EB0A076FF000651E
:1034B000B2FBF1F32F44B7FBF1F503FB112205FB3F
:1034C0001171D30AB3EBD12F06D9002401F010FB00
:1034D00060B205B0BDE8F08FC90A0091591A00F436
:1034E000FF62012988BFC2F5006A029013E000BFA5
:1034F00002985444504402900398A0EB0A0A4FF4F7
:103500000060BAF5006F28BF8246DDE900108842EE
:1035100000F10103D9D2BAF1000F0193E8D001986C
:103520004FF00061049A01EBC0261820A1464FF02D
:10353000FF35D2E900376F406B403B4324D1A0F107
:10354000100353451DD2D2E902376F406B403B4315
:103550001AD1A0F10803534513D2D2E904376F40C2
:103560006B403B4310D150450BD2D2E906376F4038
:103570006B403B4308D100F1080320322030534513
:10358000D7D3029ED34621E042F2D875C2F200059D
:10359000286800283ED036B131464FF4006215F05D
:1035A00075FD2868A146029A49466FF3DF22104450
:1035B0001FFA8AF215F06AFD30464FF40061FFF7FA
:1035C00097FE78BBD5F800904FF4006B002709EB0D
:1035D000070859F80720D8F80430F51901202946C2
:1035E00001F092FA70B9D5E9000159F80720D8F82E
:1035F000043050405940084304D108375F45E6D3B2
:1036000076E700BFFC2401F073FA60B205B0BDE8B4
:10361000F08F00BFFA2401F06BFA60B205B0BDE88C
:10362000F08F00BFFE2401F063FA60B205B0BDE880
:10363000F08F000070B544F210060446C5F600068F
:1036400001F0A2FC054600BF3068C00306D501F0BA
:103650009BFC401BA042F7D3032070BD3068C1071C
:103660001CBF012131604CF2FA3108400DD042F20A
:10367000DC71C2F2000130604860012070BD00BF03
:1036800001F082FC401BA042E6D230684003F7D430
:10369000002070BD80B512F091F940F6B831884233
:1036A00002D9FE20C0B280BDB0F5E16F02D2002089
:1036B000C0B280BD40F21061C0EBC010CFF6F9710E
:1036C00001EB400048F2B511C1F64E31A0FB0101FB
:1036D000C809C0B280BD0000B0B547F28051C1F644
:1036E000FF7109680446481C216018BFB0BD01F095
:1036F00057FC054601F05AFC454001F05DFC68406E
:103700002060B0BDB0B586464FF00A004AB3059CB4
:103710003CB39C46069B002B08BFB0BD0D460499E8
:10372000BEF1000F14D0BEF1010F19D10CF47F00CF
:10373000B0F5803F16D10120002D08BF0220032DD7
:1037400008BF02202070D289BDE8B04007F036B82B
:1037500004202070D289BDE8B04007F02FB800BF28
:103760000520B0BD03202070D289BDE8B04007F02D
:1037700025B8000080B512F041F9001280BD0000AC
:10378000B0B547F28451C1F6FF7151F8042C0446DC
:10379000531C0BD010BA60600868E0700868010A1A
:1037A000020C000EA17062702070B0BD01F0F8FB39
:1037B000054601F001FC054401F0F8FB010E6560CF
:1037C000E170010C020AA17062702070B0BD0000AF
:1037D0002DE9F04182B004460020019094F8540095
:1037E000012803D1022002B0BDE8F081012084F855
:1037F00054002046FCF7A4FE21688A68A76DD20712
:1038000046D127F481770237A765CF68CE6848F2A2
:103810000305AE43CE608E684FF6E8724BF2FF733D
:1038200046F00046C7F6FF72C0F2020307EA050839
:1038300026F017068E608E68B6F1FF3F32DC019EDF
:1038400001360196019E9E4200F2A7818E68B6F174
:10385000FF3F27DC019E01360196019E9E4200F249
:103860009C818E68B6F1FF3F1CDC019E01360196FB
:10387000019E9E4200F291818E68B6F1FF3F11DCFD
:10388000019E01360196019E9E42D4D985E100BF7A
:1038900047F01001A165002184F8541002B0BDE882
:1038A000F08100BFD1F8B4608F6806F07F05174043
:1038B00007F100478F608F68B7F1FF3F28DC019F59
:1038C00001370197019F9F4200F267818F68B7F12E
:1038D000FF3F1DDC019F01370197019F9F4200F2CE
:1038E0005C818F68B7F1FF3F12DC019F01370197C0
:1038F000019F9F4200F251818F68B7F1FF3F07DCC3
:10390000019F01370197019F9F42D4D945E100BF34
:10391000D1F8B4708E6807F07F073D4406EA0207CD
:1039200007F100478F608F68B7F1FF3F28DC019FE8
:1039300001370197019F9F4200F22F818F68B7F1F5
:10394000FF3F1DDC019F01370197019F9F4200F25D
:1039500024818F68B7F1FF3F12DC019F0137019787
:10396000019F9F4200F219818F68B7F1FF3F07DC8A
:10397000019F01370197019F9F42D4D90DE100BFFC
:10398000D1F8B4708E6807F07F073D4406EA02075D
:1039900007F100478F608F68B7F1FF3F28DC019F78
:1039A00001370197019F9F4200F2F7808F68B7F1BE
:1039B000FF3F1DDC019F01370197019F9F4200F2ED
:1039C000EC808F68B7F1FF3F12DC019F0137019750
:1039D000019F9F4200F2E1808F68B7F1FF3F07DC53
:1039E000019F01370197019F9F42D4D9D5E000BFC5
:1039F000D1F8B4708E6807F07F073D4406EA0207ED
:103A000007F100478F608F68B7F1FF3F28DC019F07
:103A100001370197019F9F4200F2BF808F68B7F185
:103A2000FF3F1DDC019F01370197019F9F4200F27C
:103A3000B4808F68B7F1FF3F12DC019F0137019717
:103A4000019F9F4200F2A9808F68B7F1FF3F07DC1A
:103A5000019F01370197019F9F42D4D99DE000BF8C
:103A6000D1F8B4708E6807F07F073D4406EA02077C
:103A700007F100478F608F68B7F1FF3F26DC019F99
:103A800001370197019F9F4200F287808F68B7F14D
:103A9000FF3F1BDC019F01370197019F9F427CD8AC
:103AA0008F68B7F1FF3F11DC019F01370197019F3C
:103AB0009F4272D88F68B7F1FF3F07DC019F013743
:103AC0000197019F9F42D6D967E000BFD1F8B4703B
:103AD0008E6807F07F073D4406EA020707F10047BA
:103AE0008F608F68B7F1FF3F24DC019F013701979A
:103AF000019F9F4251D88F68B7F1FF3F1ADC019FA9
:103B000001370197019F9F4247D88F68B7F1FF3F68
:103B100010DC019F01370197019F9F423DD88F68BC
:103B2000B7F1FF3F06DC019F01370197019F9F42DC
:103B3000D7D932E0D1F8B4708E6807F07F073D44E2
:103B400006EA020707F100478F608F68B7F1FF3F71
:103B500030DC019F01370197019F9F421DD88F687C
:103B6000B7F1FF3F26DC019F01370197019F9F427C
:103B700013D88F68B7F1FF3F1CDC019F0137019715
:103B8000019F9F4209D88F68B7F1FF3F12DC019F68
:103B900001370197019F9F42D7D9A06D40F01000D7
:103BA00020F00200A065002084F85400012002B03B
:103BB000BDE8F0810646D1F8B4008B6800F07F00C4
:103BC000134043F001038B60D1F8B430284423F054
:103BD0007F0343EAD000C1F8B4008868104040F089
:103BE0000200886001F0D0F921688A68D20709D103
:103BF000C86840EA0800C860A16D012060F30101B7
:103C0000304647E6054602E08868C007F0D001F07C
:103C1000BBF9401B21680328F6D38868C007F3D09E
:103C2000A06D40F01000A065E06D40F00100E0657F
:103C3000012002B0BDE8F0812DE9F04181B0002201
:103C4000009290F85420012A04D10221084601B0C4
:103C5000BDE8F0810123026880F8543093685B0767
:103C60001AD44B680569022B1CD1042745F00403C4
:103C7000C8F20007BB425DD10B684FF6FF77D9430E
:103C8000C0F20307966A61EA070131409162B3F11D
:103C9000FF3F00F3F08052E0816D41F0200181652B
:103CA0000121E9E0042445F00405C8F20004A5421E
:103CB0004FF6FF74C0F2030460D1D1F800E0936ABC
:103CC0000EEA04052B439362896853694FF6007727
:103CD00001EA0E21C0F2FF3723EA0E2339401943CF
:103CE000BEF1FF3F516100F3C68042F2087CC4F28E
:103CF000010CDCF8003041F20001CBF200018E45EE
:103D000003F0E07208BF13F400015DD044F200013B
:103D1000CBF600018E4540F08D800021B1EB126F93
:103D200040F08880DCF8001021F0E071114341F090
:103D3000807191E00B68B3F1FF3F00F39C8042F289
:103D40000871C4F2010144F200070A68CBF60007CB
:103D5000BB4200F0898042F20007CBF20047BB4231
:103D600000F07E8041F20007CBF20007BB4240F03A
:103D700082800B6802F0A07279E000BFD1F800E009
:103D8000076E03F01F0C0F259EFAAEF6D0F81C80CC
:103D900005FA0CF5B6FA86F6AF431EEA040F08BF23
:103DA000CEF3846606FA0CF43C43B8EB930F04663A
:103DB0008AD9946AEB434FEA9E65234005F00F04CD
:103DC00004FA0CF73B437EE7DCF8001021F0E071C9
:103DD000114341F40001CCF8001040F20411C2F28A
:103DE0000001096842F663528909C0F23E52A1FB04
:103DF0000212910901EB41010C2202EB81010091B9
:103E00000099C1B3009901390091009999B30099C3
:103E100001390091009971B300990139009100991D
:103E200049B3009901390091009900294FF0000130
:103E3000E8D121E042F20001CBF200418E454FF083
:103E4000000108BF13F4800316D1DCF8001021F044
:103E5000E071114341F48001CCF800100BE000BF89
:103E60000B6802F0C07202E00B6802F4400223F01B
:103E7000E0731A440A600021002280F854200846AA
:103E800001B0BDE8F081000070B5B8B30446016828
:103E9000806D4FF6E87640F00200A0658868C7F6AE
:103EA000FF7640070DD58868800704D488683040C5
:103EB00040F01000886001F067F821688A685207B6
:103EC0001ED488688A68D20714D010F0020011D17D
:103ED000886800F00500012838D18868304040F03B
:103EE000020088600320086001F04EF821688A68AB
:103EF000D2071DD101200025A06530E0012070BD52
:103F0000054602E088684007DBD501F03DF8401B1C
:103F100021680328F6D388684007F3D5A06D0125F2
:103F200040F01000A065E06D40F00100E0651BE08E
:103F3000054602E08868C007DCD001F025F8401B88
:103F400021680328F6D38868C007F3D0A06D012547
:103F500040F01000A065E06D40F00100E065886869
:103F600006F1704210408860486840F29F329043EA
:103F700048600A60C86840F20022C8F23E32104031
:103F8000C8604869002620F007004861886A8E6290
:103F9000086A00F0F0200862486A00F0F0204862E9
:103FA000C86A00F0F020C862086920F0404008614B
:103FB00042F20870C4F20100016821F0FE71016054
:103FC000204600F03DF928462666E665A66584F899
:103FD000546070BD0068006C7047000070B582B01E
:103FE00000210028019100F00F81816D21B102684C
:103FF0009168C9000CD53CE0044600F031F9204638
:104000000021E16584F8541002689168C90030D439
:1040100091684FF6E873C6F6FF73194001F18051BD
:10402000916040F20411C2F20001096842F6635344
:104030008909C0F23E53A1FB03139909022303EB44
:10404000410101910199A1B10199013901910199B0
:1040500079B1019901390191019951B10199013960
:104060000191019929B10199013901910199002921
:10407000EAD19168C9000BD4816D4FF0010E41F077
:1040800010018165C16D41F00101C16502E000BF11
:104090004FF0000E9368846D03F0040304F01004E5
:1040A0001B19836D58D123F48173023383659368A0
:1040B000DB0769D1037ED0E9024C457E44EA8333B5
:1040C000847E016943EAC53343EA4433056B21F03A
:1040D0000046B1F1FF3F43EA0C03C8BF4FF400169E
:1040E00090F82C10002D18BF43F4805390F8205006
:1040F0003343012D43EA41030AD1002C00F098809C
:10410000816D41F020018165C16D41F00101C16502
:10411000446A24B1816A04F4E07631430B43D168E8
:1041200040F20126CFF6FE7631401943D160436854
:1041300090F83C10D0F84CC0012903F0404413D152
:1041400000F1400662CE29433143214341EA0C018C
:1041500041F001040AE000BF43F0100181654FF017
:10416000010E704602B070BD44EA0C0411694FF6AE
:104170000246C1F6FF7631402143B3F1004F116191
:1041800018BFB3F1404F45D10469D0E90D315669EC
:10419000B4F5001F26F0070646EA03065661566985
:1041A00026F0700646EA0111516105D094B9916A72
:1041B00061F00F010DE000BF916AC1691C2505EB9C
:1041C0008101066E01F01C016FF00F0505FA01F187
:1041D00031439162516901F0070199420AD10021EE
:1041E000C165816D012262F301018165704602B0F3
:1041F00070BD00BF816D41F0100121F002018165A9
:10420000C16D41F00101C1654FF0010E704602B071
:1042100070BD00BFB3F1804FB6D042F20871C4F256
:1042200001010E689B0C63F395460E60ACE700BF7E
:1042300043F48033446A002C7FF46CAF6FE70000D6
:10424000006842F20041C4F20101884218BF704781
:104250006020C5F60000016821F40071016070471C
:10426000006842F20041C4F20101884218BF704761
:1042700081B06020C5F60000016841F40071016062
:10428000006800F400700090009801B070470000D2
:10429000F0B581B0044640690D46082802D10827D0
:1042A00005E000BF2068C068C00755D1042700F0B2
:1042B0006BFE21680A683A421CD0204650F8582FFD
:1042C00042F400720260CA6812F4406F56D1A27EB6
:1042D000002A53D10A68120750D58A68520743D47E
:1042E0004A6840F2011322F00C024A6002689A43C5
:1042F00041E000BF0646681C29D065B900F044FEC5
:104300002168086838420FD008683842F6D0D4E7F0
:1043100008683842D1D100F037FE801B2168A842DE
:10432000F6D908683842F3D1A06D40F00400A065CA
:10433000002084F85400032001B0F0BD0868384222
:10434000BBD108683842B8D108683842B5D108688E
:104350003842F3D0B1E700BFA06D40F02000A06567
:10436000012001B0F0BD00BFA06D40F02000A065AD
:10437000204650F85C2F42F001020260207E0028A7
:1043800004BF0C200860002001B0F0BD10B501682A
:104390008968490703D490F85410012902D10220FA
:1043A00010BD00BF012180F854100446FCF706F947
:1043B00020B1002084F85400012010BD2168A06DB8
:1043C00040F60172904300F58070A06500201C2229
:1043D000E0650A6084F854008A684FF6E873C7F60F
:1043E000FF731A4004328A6010BD0000B0B5044665
:1043F00090F85400012804BF0220B0BD01202168BC
:1044000084F854008868400710D58868800707D46E
:1044100088684FF6E872C7F6FF7210401030886067
:1044200000F0B2FD21688A68520725D488688A683E
:10443000D20717D010F0020014D1886800F00500F0
:10444000012837D188684FF6E872C7F6FF7210402E
:10445000023088600320086000F096FD21688968BA
:10446000C90719D1214651F8580F40F2011220EA2C
:104470000202002026E000BF054602E088684007EF
:10448000D4D500F081FD401B21680328F6D388684D
:104490004007F3D50EE000BF054602E08068C00784
:1044A000E0D000F071FD411B20680329F6D381683C
:1044B000C907F3D0A06D214640F01000A06551F867
:1044C0005C2F012042F001020A60002184F85410A0
:1044D000B0BD000042F20400CEF20400016821F0F9
:1044E000010101607047000042F20400CEF20400B6
:1044F000016821F0040101607047000042F20400ED
:10450000CEF20400016821F0020101607047000052
:10451000002804BF0120704790F8251002292DD1F2
:1045200080B50168D0E910CE826C0B6823F00E03D1
:104530000B60136823F4807313600A6822F0010291
:104540000A600EF01C02012101FA02F2CCF80420EC
:10455000D0E913325A60426D32B1136823F480738C
:104560001360D0E91623536080F825100021BDE8C0
:104570008040002280F82420084670470421C1634F
:104580000121002280F824200846704790F8251069
:1045900002292FD180B50168D0E910CE826C0B685A
:1045A00023F00E030B600B6823F001030B6011680E
:1045B00021F4807111600EF01C02012101FA02F257
:1045C000CCF80420D0E913325A60426D32B113683E
:1045D00023F480731360D0E91623536080F825100C
:1045E000816B0022002980F8242018BF8847002012
:1045F00080BD00BF0421C16301207047002804BFB3
:10460000012070470068CB06026805D5C90254BF77
:1046100022F4801242F480120260002070470000F1
:1046200000284FF0010C04BF012070472DE9F04F26
:1046300040F20444D0E9002EC4F202044FF6F831EF
:10464000231DCBF6FD719A4238BF01F580614CF60F
:10465000CD451144CCF6CC45A1FB051A02F0FC0176
:10466000A1F10801A1FB051B116840F2000921F02E
:104670000101C4F20209116009F580616FF00306BF
:104680003CBF0021C4F2020104F5836506EA9A06E4
:104690001C279A4238BF04F57F75C0E91016002127
:1046A00007EA9A0711600CFA07F79A4238BF09F136
:1046B00004042760072404EB1B149A4238BF4FEA16
:1046C0001B1404F01F0240F680080CFA02F3AEF14E
:1046D0000102C4F20208AF19032AC0E91278036587
:1046E000A951C8F8043008D8012708EB820307FA5B
:1046F00002F2C3F88010C8F8C420C0E91511C165E2
:10470000C0E90B11C0E90D11C16380F8251080F8D4
:104710002410BDE8F04F08467047000070B5D0E99E
:1047200010C20168DCF8004002F01C0304220E688D
:104730009A40224218BF16F0040523D1022202FA41
:1047400003FE1EEA040F18BF16F002022AD124FA53
:1047500003F2120714D516F0080208BF70BD0A68EC
:1047600022F00E020A60012101FA03F2CCF80420C3
:10477000C16380F82510416B002280F8242069B9BC
:1047800070BD00BF0B689B0603D40B6823F00403C5
:104790000B60CCF80420016B0029F1D0BDE870401B
:1047A000084700BF0A68920606D40A6822F00A0287
:1047B0000A60012280F825200422C4F2020202F1DC
:1047C0007C03994288BF02F58062C2F800E0C16AAA
:1047D0000022002980F82420E0D1D1E700284FF002
:1047E000010100F091802DE9F04F0026C4F202068D
:1047F00003684FF6F83706F58169CBF6FD774B4530
:1048000038BF07F580674CF6CD451F44CCF6CC4544
:10481000A7FB057803F0FC07A7F1080740F6840E14
:10482000A7FB057BC4F2020E06F580646FF003055A
:10483000D0E902AC02693CBF0024C4F20204AEF12C
:10484000680705EA98054B4538BF06F50067C0E9DB
:104850001045022480F825401C6847F6F07624EACB
:1048600006061E60466942EA0C0284693243C66944
:104870002243046A32431E682243324342EA0A0258
:104880001A604B454FF0070303EB1B1338BF4FEA89
:104890001B1303F01F037A19AEF1040701FA03F3A7
:1048A000BAF5804FC7648264036505D10021416079
:1048B0001160CEF8003019E0416801F07F0701393E
:1048C00003294FF000011760CEF800300ED87A1E91
:1048D0000EEB820747F87C1F02F0030101228A4099
:1048E0000EF1BC033946CEF8C02001E000230022BF
:1048F000C0E91513C26500210122C16380F825209B
:1049000080F82410BDE8F04F0846704790F824C0A6
:10491000BCF1010F04BF022070474FF0010C80F87A
:1049200024C090F825C0BCF1010F3BD12DE9F04126
:104930004FF0020C80F825C04FF0000CC0F83CC0CE
:10494000D0F800C000F14C0E9EE83040DCF800606A
:10495000BEF1000F26F00106CCF8006065601CBFB8
:10496000D0E916456560D0E91056012706F01C060F
:10497000846807FA06F6D0F830806E60CCF8043010
:104980000B46102C04BF13460A46CCF80830CCF86E
:104990000C20DCF80010B8F1000F0BD041F00E0134
:1049A00010E000BF8021C163002180F824100120A5
:1049B000704700BF21F00401CCF80010DCF80010B3
:1049C00041F00A01CCF80010806C0168C90303D5DE
:1049D000016841F480710160BEF1000F05D0DEF87E
:1049E000000040F48070CEF80000DCF8000040F0D9
:1049F0000100CCF800000020BDE8F08181B00090FB
:104A0000009801B012F060B92DE9F04F81B042F288
:104A1000DC75C2F200052A78012A03D1022001B018
:104A2000BDE8F08F04460120287000274FF47A700B
:104A300089466F60FEF7FEFD20B12F7001B0BDE822
:104A4000F08F00BF206844F2140B0428C5F6000B59
:104A50000ED10221DBF80000C0F20101023108434F
:104A6000CBF800004FF47A70FEF7E4FD38E000BFA9
:104A70004FF0FF30C9F80000D4E9016049463044E6
:104A8000864221D240F2020A4FF60548C0F2010ADE
:104A9000F700CFF6FE7800BFDBF8000000EA080060
:104AA000384340EA0A00CBF800004FF47A70FEF772
:104AB000C1FD58B9D4E9010101360844864207F125
:104AC0000807E9D3002003E0002002E0C9F80060F5
:104AD0000027DBF8001040F2FA329143CBF80010C7
:104AE0005BF8141C5BF8141C2F7001B0BDE8F08F4C
:104AF00044F21400C5F60000016841F00041016075
:104B00000068C043C00F70472DE9F04742F2DC79DE
:104B1000C2F20009924699F80020012A04BF02203F
:104B2000BDE8F0878046012044F2100589F80000B6
:104B300000201F460E46C5F60005C9F8040000F027
:104B400023FA04462868C0030CD500F01DFA001BA8
:104B5000B0F57A7FF6D30320002189F80010BDE874
:104B6000F08700BF2868C1071CBF012129604CF2F3
:104B7000FA3108400ED02860C9F804000120002155
:104B800089F80010BDE8F08700F0FEF9001BB0F5D1
:104B90007A7FE0D228684003F6D4B8F1010F09D13A
:104BA000686840F001006860C6F800A0BFF36F8F2E
:104BB000776042E06868AAF1400240F480206860B3
:104BC000EFF31080EFF3108172B6A6F1400140239D
:104BD00052F8407F103B41F8407F57681E064F60F7
:104BE00097688F60D768CF6017690F6157694F6109
:104BF00097698F61D769CF61176A0F62576A4F62F1
:104C0000976A8F62D76ACF62176B0F63576B4F63D8
:104C1000976B8F63D76BCF63DAD102E02968C90342
:104C200009D52968C90306D52968C90344BF29687D
:104C30005FEAC131F2D480F3108800F0A5F9044690
:104C40002868C00308D500F09FF9001BB0F57A7FF3
:104C5000F6D3032018E000BF2868C1071CBF01215C
:104C600029604CF2FA3108400AD02860C9F80400E3
:104C7000012009E000F088F9001BB0F57A7FE8D246
:104C800028684003F6D40020696821EA08016960B9
:104C9000002189F80010BDE8F087000044F2080008
:104CA000C5F60000C168B1F1FF3FC4BF00207047E6
:104CB00040F22311C4F26751016048F6AB11CCF603
:104CC000EF510160C068C00F70470000002908BFA5
:104CD00070472DE9F04F82B040F60003C4F60003A0
:104CE0000722984208BF0222009200F1200201929E
:104CF000019C4FF0000B00274FF0000A25E000BF99
:104D00000668032202FA0BF52E436FF003020660D9
:104D100002EA5A0207F01C0EA3580F2606FA0EF6F6
:104D2000B343A3508268AA438260426822EA0C021D
:104D30004260C268AA43C2600AF1010A31FA0AF26B
:104D400007F104070BF1020B4CD0012202FA0AFC16
:104D50001CEA0108F0D008222AF00305C4F201027F
:104D6000AB58B0F1904F0BD040F20042C4F60002B5
:104D7000DDF800E0904208BF4FF0010E02E000BFF6
:104D80004FF0000E07F00C05072202FA05F903EABE
:104D900009060EFA05F5AE42B2D140F60002C5F69C
:104DA0000002D2F880604FEA9A0526EA0806C2F8A7
:104DB0008060D2F8846026EA0806C2F8846016682B
:104DC00026EA08061660566826EA08065660082293
:104DD000C4F2010252F8256026EA090642F825606D
:104DE0008EE700BF02B0BDE8F04F70472DE9F04FED
:104DF00082B00F68002F00F0BD8000F1200240F665
:104E000000030092C4F6000307224FF0000A0026B8
:104E10004FF00008984208BF022201924AE000BF0A
:104E200040F20042C4F60002019B904208BF0123F9
:104E30000AF00C050727AF402CEA0707AB403B43BD
:104E400008274FEA9802C4F2010740F6000447F829
:104E50002230C5F6000422684B6842EA0907DD02E9
:104E600058BF22EA0907276062689D0242EA0907E3
:104E700058BF22EA09076760D4F88020DD0342EAC0
:104E8000090758BF22EA0907C4F88070D4F88420C3
:104E90009B0342EA090758BF22EA0907C4F8847055
:104EA0000F6808F1010837FA08F206F102060AF164
:104EB000040A5FD0012202FA08FE17EA0E09EFD0B9
:104EC000D1F804C003220CF0030BABF1010302FA8A
:104ED00006F7012B6FEA070410D88368CF682340D8
:104EE000B7403B4383604368CCF3001723EA0E03CB
:104EF00007FA08F73B43436006E000BFBBF1030F2E
:104F000002D14FF0030B1EE0C3688F682340B74007
:104F10003B43BBF1020FC36015D16FF00302009B4E
:104F200002EA580E53F80EC00AF01C050F220F6952
:104F3000AA402CEA0202AF403A4343F80E20D1F8CF
:104F400004C00CF0030B02680BFA06F322401A436C
:104F50001CF4403F0260A3D0082328F00302C4F2EF
:104F6000010352F803C0B0F1904F7FF459AF002312
:104F70005EE700BF02B0BDE8F08F00001823002AF2
:104F800008BF2823C150704742F28D30C2F20000A2
:104F9000007801281CBF0020704711F025BF0000D9
:104FA00047F29050C1F6FF700068704747F2945086
:104FB000C1F6FF700068704747F29850C1F6FF7065
:104FC0000068704780B5032000F06AF800F02EFBFF
:104FD00040F20411C2F2000108600F2000F008F84E
:104FE00000281CBF012080BD00F004F8002080BD17
:104FF0000020704770470000002848BF704700F04D
:105000001F01012202FA01F11C2202EAD0004EF235
:105010008012CEF200028150BFF34F8FBFF36F8F2B
:1050200070470000002848BF704700F01F010122B0
:1050300002FA01F11C2202EAD0004EF20012CEF276
:10504000000281507047000010B54EF60C5CCEF2A5
:10505000000CDCF80030C3F3022E8EF00704042CA1
:1050600028BF0424BEF103034FF0FF3E0EFA04F400
:1050700038BF0023A14399400EFA03F39A4311432A
:1050800000F00F0200F160430901043A03F56443A4
:105090006244002848BF02F10C03197010BD0000E3
:1050A0004EF60C51CEF200010A684FF6FF031A408B
:1050B00060F30A2242F0806040F0FD7008607047A3
:1050C00040F21440C5F6000050F8141C322221F4BE
:1050D000804140F8141C40F20411C2F2000109683A
:1050E00051434DF68362C4F21B32A1FB0212910CB4
:1050F0000268920511D581B1026892050DD501298A
:105100000BD00268920508D5022906D002689205E4
:1051100003D50329A1F10401EAD100680321800528
:1051200001EAE0707047000040F20040C5F6000060
:10513000016841F4804101607047000040F2004284
:10514000C5F60002136802214EF6105C61F30203FB
:10515000CEF2000C1360DCF80010012841F00401CD
:10516000CCF800100FBF30BF40BF20BF20BFDCF81D
:10517000000020F00400CCF80000704740F200402E
:10518000C5F60000006800F4C060704740F20040BF
:10519000C5F60000016841F48071016070470000AD
:1051A00010B540F21442C5F6000212680C4628B150
:1051B000900558BFFFF7B8FF07E000BF900504D582
:1051C000FFF77EFF002818BF10BD4EF61050CEF23C
:1051D00000000168012C21F00401016004BF30BF10
:1051E00010BD40BF20BF20BF10BD0000F0B581B092
:1051F000044680788826C007C5F6000600F0AC801B
:10520000FFF7C4FFFFF7C0FE054600BFD6F87803DE
:10521000C00577D4FFF7B8FE401B0228F6D903205B
:105220002168CA0700F09D806268336823EA124350
:1052300092B21A4332608A0740F19680A2683368BE
:1052400023EA124392B21A4332608A0640F18F80F9
:105250002269336823F440631A4332608A0540F1BF
:105260008980226A33684FF6FF7767EA02073B407E
:1052700043EA024232604A0540F17F80626A336845
:105280004FF6FF7767EA02073B4043EA024232608B
:105290000A0575D5A26A33684FF6FF7767EA0207F9
:1052A0003B4043EA024232604A066BD5626933688A
:1052B0006FF47F2767EA12173B4002F47F4243EA0C
:1052C000021232600A065FD5A26933686FF47F2745
:1052D00067EA12173B4002F47F4243EA021232604F
:1052E000CA0553D5E26933686FF47F2767EA12175E
:1052F0003B4002F47F4243EA02123260CA0657D5AD
:1053000046E000BFB168606B01F4407181421ED07D
:10531000B168B26821F4407342F48032B260B2687E
:10532000890722F480320146B260B3600FD5FFF7DF
:105330002BFE054641F28837B068800706D4FFF798
:1053400023FE401BB842F7D969E700BF616BB06824
:1053500020F440700843B06000202168CA077FF441
:1053600063AF8A073FF56AAF8A063FF571AF8A05DA
:105370003FF577AF4A053FF581AF0A053FF58AAFA4
:105380004A0693D40A069FD4CA05ABD4CA060FD5E1
:10539000E2683368B2F5807F23F4407343EA020386
:1053A000336005D156F87C2C42F0807246F87C2C94
:1053B0000A0407D5226B336823F0404343EA020313
:1053C00033609AB1490419D5E16A3268B1F1005FDE
:1053D00022F0405242EA010232600FD156F87C1CA2
:1053E00041F4803146F87C1C01B0F0BD56F87C2CAD
:1053F00042F0807246F87C2C4904E5D401B0F0BD3F
:105400002DE9F04381B0002800F0EA8044F2000862
:10541000C5F600080546D8F800000C4600F0070065
:10542000884215D2D8F8000020F007002043C8F8C1
:105430000000FFF7A9FD0646D8F8000000F00700BD
:10544000A04205D0FFF7A0FD801B0228F4D977E029
:10545000286808278107C5F6000714D5A8683968A9
:1054600021F0F00108433860FFF78EFD064600BFCB
:105470003868C00306D4FFF787FD801B0228F7D9E0
:105480005EE000BF2868810615D56869D7F800116D
:1054900021F0F0010843C7F80001FFF775FD06464B
:1054A000D7F80001800305D4FFF76EFD801B0228AA
:1054B000F6D945E02868410617D5A869D7F8001144
:1054C00021F00F0141EA1010C7F80001FFF75CFD61
:1054D000064600BFD7F80001C00305D4FFF754FD0E
:1054E000801B0228F6D92BE02868410713D5E8680D
:1054F000396821F4E06108433860FFF745FD06464E
:105500003868800306D4FFF73FFD801B0228F7D9D7
:1055100016E000BF2868010717D52869396821F40B
:10552000605141EAC0003860FFF72EFD064600BF1B
:105530003868400308D4FFF727FD801B0228F7D9FD
:10554000032001B0BDE8F0832868C0071ED1D8F859
:10555000000000F00700A04224D9D8F8000020F095
:1055600007002043C8F80000FFF70EFD054600BF06
:10557000D8F8000000F00700A04213D0FFF704FDA8
:10558000401B02284FF00300F2D947E068684FF053
:10559000B041096840B3032820D0022842D18903D2
:1055A0001ED523E000F08CF839683C2202EA910114
:1055B0004BF20C42C0F60102515840F20412B0FB0B
:1055C000F1F140F26800C2F200000068C2F200028D
:1055D000116001B0BDE8F043FFF70ABD890105D4B1
:1055E000012001B0BDE8F0838907F9D5396821F0C1
:1055F000030108433860FFF7C7FC064641F28839CB
:105600003868696800F00C00B0EB810F9FD0FFF79D
:10561000BBFC801B48454FF00300F1D901B0BDE849
:10562000F08300BF4905DBD5E0E7000080B500F05E
:1056300047F80821C5F6000109683C2202EA9101F9
:105640004BF20C42C0F601025158B0FBF1F080BDA4
:1056500080B500F035F80821C5F600010A683C2342
:1056600003EA92024BF20C43C0F601039A58096810
:10567000B0FBF2F04BF24C42C1F30221C0F6010242
:1056800052F82110C84080BD80B500F019F80821FB
:10569000C5F600010A683C2303EA92024BF20C4370
:1056A000C0F601039A580968B0FBF2F04BF24C4285
:1056B000C1F3C221C0F6010252F82110C84080BDDA
:1056C0000C21C5F6000151F8040C10F00C0208681A
:1056D00005D00C2A16D100F00300012812D14FF09A
:1056E000B040036800681B0706D400071CD4D1F83B
:1056F0008800C0F3032022E000071BD4D1F8880003
:1057000015E000BF42F20040042AC0F2F40022D0AB
:10571000082A1FD14FF0B0421268D2025CBF44F693
:105720000000C0F2E81016E04FF0B0400068002022
:1057300005E000BF4FF0B0400068C0F303104BF627
:10574000EC13C0F6010353F82030002A184618BFA6
:10575000002001E00020002351F8042C02F00C028C
:105760000C2A18BF7047086800F0030242F200409C
:10577000022AC0F2F4000AD0032A09D14FF0B04245
:105780001268D2025CBF44F60000C0F2E810034683
:1057900008680A68C0F30620C2F3021258430132B7
:1057A0000968B0FBF2F0012202EB5171B0FBF1F09D
:1057B00070470000002804BF012070472DE9F04F1A
:1057C00081B040F2900B0446C5F6000B5BF8880CE4
:1057D0005BF8841C227800F00C08900601F0030AA4
:1057E00026D42078C00759D0B8F1080F52D0B8F1AC
:1057F0000C0F08BFBAF1030F4CD04FF0B040026855
:10580000D4E9011322F480121A4302600268B1F550
:10581000803F09D0B1F5041F40F0348242F40011FA
:105820004FF0B0421160126842F48031016035E2FD
:10583000B8F1000F1ED0B8F10C0F08BFBAF1010F7C
:1058400018D0216A4FF0B0463068002900F0688116
:1058500040F001003060FFF797FB05463068800795
:1058600000F18681FFF790FB401B02284FF00300F8
:10587000F4D957E3206A002800F0B4824FF0B04119
:10588000A06A0A68120700F1D380DBF80410090946
:10589000CFE000BF6068002800F0A4822078800775
:1058A0002FD5B8F1040F1FD0B8F10C0F08BFBAF113
:1058B000020F19D021694FF0B0463068002900F07E
:1058C000FF8140F480703060FFF75EFB054600BF4B
:1058D000306840050CD4FFF757FB401B02284FF0FF
:1058E0000300F5D91EE300BF2069002800F07A828A
:1058F00060695BF88C1C21F0FE4141EA00604BF8C6
:105900008C0C2078000729D42078400752D4E56A0F
:10591000002D00F0D482B8F10C0F40F03F81012D32
:1059200000F060825BF8840C216B00F003028A4275
:1059300040F05882616B00F070028A4240F052825F
:10594000A16B00F4FE42B2EB012F40F04B82616C80
:1059500000F06040884200F0B28243E2A069DBF8C8
:105960000410002800F0EE80E06901F0100290427F
:1059700000F0C28201F00302022A00F03382C9075C
:1059800000F0B382DBF8040020F00100CBF8040043
:10599000FFF7FAFA054600BFDBF80400800740F184
:1059A000A382FFF7F1FA401B11284FF00300F3D94F
:1059B000B8E200BFDBF87003C00511D4FFF7E6FBC7
:1059C000FFF7E2FA054600BFDBF87003C00507D415
:1059D000FFF7DAFA401B02284FF00300F4D9A1E2E6
:1059E000E068002800F07E81852801D0052805D1D7
:1059F000DBF8000040F00400CBF80000FFF7C4FA29
:105A0000DBF80010054641F0010041F28836CBF882
:105A1000000000BFDBF80000800700F11381FFF7F2
:105A2000B3FA401BB0424FF00300F3D97AE200BF53
:105A3000096801F0F00144F2000688424BF20C497B
:105A40004BF6EC11C5F60006C0F60109C0F60101DF
:105A500028D93C2202EA90000858DBF8781001F0BF
:105A60000F0159F82110B0FBF1F5FFF787FBB0F5F6
:105A7000007F40F0B7804EF6BF20C0F22110854273
:105A800040F2DC8049F23F30C0F23420854240F2DF
:105A900043814AF63F60C0F2EB20854240F2B68077
:105AA000002740E14FF0B042136843F00803136051
:105AB000136823F0F00303431360626A5BF88C3CC5
:105AC00023F47F4343EA02224BF88C2C6FF003024D
:105AD00002EA90000858DBF8781001F00F0159F83D
